{
  "_format": "hh-sol-artifact-1",
  "contractName": "DataLiquidityPool",
  "sourceName": "contracts/dataLiquidityPool/DataLiquidityPool.sol",
  "abi": [
    {
      "inputs": [],
      "name": "AccessControlBadConfirmation",
      "type": "error"
    },
    {
      "inputs": [
        {
          "internalType": "address",
          "name": "account",
          "type": "address"
        },
        {
          "internalType": "bytes32",
          "name": "neededRole",
          "type": "bytes32"
        }
      ],
      "name": "AccessControlUnauthorizedAccount",
      "type": "error"
    },
    {
      "inputs": [
        {
          "internalType": "address",
          "name": "target",
          "type": "address"
        }
      ],
      "name": "AddressEmptyCode",
      "type": "error"
    },
    {
      "inputs": [
        {
          "internalType": "address",
          "name": "implementation",
          "type": "address"
        }
      ],
      "name": "ERC1967InvalidImplementation",
      "type": "error"
    },
    {
      "inputs": [],
      "name": "ERC1967NonPayable",
      "type": "error"
    },
    {
      "inputs": [],
      "name": "EnforcedPause",
      "type": "error"
    },
    {
      "inputs": [],
      "name": "ExpectedPause",
      "type": "error"
    },
    {
      "inputs": [],
      "name": "FailedInnerCall",
      "type": "error"
    },
    {
      "inputs": [],
      "name": "FileAlreadyAdded",
      "type": "error"
    },
    {
      "inputs": [],
      "name": "FileAlreadyVerified",
      "type": "error"
    },
    {
      "inputs": [],
      "name": "InvalidFileId",
      "type": "error"
    },
    {
      "inputs": [],
      "name": "InvalidInitialization",
      "type": "error"
    },
    {
      "inputs": [],
      "name": "InvalidStakeAmount",
      "type": "error"
    },
    {
      "inputs": [],
      "name": "MasterKeyAlreadySet",
      "type": "error"
    },
    {
      "inputs": [],
      "name": "NotInitializing",
      "type": "error"
    },
    {
      "inputs": [],
      "name": "NotValidator",
      "type": "error"
    },
    {
      "inputs": [
        {
          "internalType": "address",
          "name": "owner",
          "type": "address"
        }
      ],
      "name": "OwnableInvalidOwner",
      "type": "error"
    },
    {
      "inputs": [
        {
          "internalType": "address",
          "name": "account",
          "type": "address"
        }
      ],
      "name": "OwnableUnauthorizedAccount",
      "type": "error"
    },
    {
      "inputs": [],
      "name": "ReentrancyGuardReentrantCall",
      "type": "error"
    },
    {
      "inputs": [],
      "name": "TooManyValidators",
      "type": "error"
    },
    {
      "inputs": [],
      "name": "UUPSUnauthorizedCallContext",
      "type": "error"
    },
    {
      "inputs": [
        {
          "internalType": "bytes32",
          "name": "slot",
          "type": "bytes32"
        }
      ],
      "name": "UUPSUnsupportedProxiableUUID",
      "type": "error"
    },
    {
      "inputs": [],
      "name": "ValidatorAlreadyApproved",
      "type": "error"
    },
    {
      "inputs": [],
      "name": "ValidatorAlreadyRegistered",
      "type": "error"
    },
    {
      "anonymous": false,
      "inputs": [
        {
          "indexed": true,
          "internalType": "address",
          "name": "ownerAddress",
          "type": "address"
        },
        {
          "indexed": false,
          "internalType": "uint256",
          "name": "fileId",
          "type": "uint256"
        }
      ],
      "name": "FileAdded",
      "type": "event"
    },
    {
      "anonymous": false,
      "inputs": [
        {
          "indexed": true,
          "internalType": "address",
          "name": "validatorAddress",
          "type": "address"
        },
        {
          "indexed": false,
          "internalType": "uint256",
          "name": "fileId",
          "type": "uint256"
        },
        {
          "indexed": false,
          "internalType": "uint256",
          "name": "score",
          "type": "uint256"
        }
      ],
      "name": "FileVerified",
      "type": "event"
    },
    {
      "anonymous": false,
      "inputs": [
        {
          "indexed": false,
          "internalType": "uint64",
          "name": "version",
          "type": "uint64"
        }
      ],
      "name": "Initialized",
      "type": "event"
    },
    {
      "anonymous": false,
      "inputs": [
        {
          "indexed": false,
          "internalType": "string",
          "name": "newMasterKey",
          "type": "string"
        }
      ],
      "name": "MasterKeySet",
      "type": "event"
    },
    {
      "anonymous": false,
      "inputs": [
        {
          "indexed": true,
          "internalType": "address",
          "name": "previousOwner",
          "type": "address"
        },
        {
          "indexed": true,
          "internalType": "address",
          "name": "newOwner",
          "type": "address"
        }
      ],
      "name": "OwnershipTransferred",
      "type": "event"
    },
    {
      "anonymous": false,
      "inputs": [
        {
          "indexed": false,
          "internalType": "address",
          "name": "account",
          "type": "address"
        }
      ],
      "name": "Paused",
      "type": "event"
    },
    {
      "anonymous": false,
      "inputs": [
        {
          "indexed": true,
          "internalType": "bytes32",
          "name": "role",
          "type": "bytes32"
        },
        {
          "indexed": true,
          "internalType": "bytes32",
          "name": "previousAdminRole",
          "type": "bytes32"
        },
        {
          "indexed": true,
          "internalType": "bytes32",
          "name": "newAdminRole",
          "type": "bytes32"
        }
      ],
      "name": "RoleAdminChanged",
      "type": "event"
    },
    {
      "anonymous": false,
      "inputs": [
        {
          "indexed": true,
          "internalType": "bytes32",
          "name": "role",
          "type": "bytes32"
        },
        {
          "indexed": true,
          "internalType": "address",
          "name": "account",
          "type": "address"
        },
        {
          "indexed": true,
          "internalType": "address",
          "name": "sender",
          "type": "address"
        }
      ],
      "name": "RoleGranted",
      "type": "event"
    },
    {
      "anonymous": false,
      "inputs": [
        {
          "indexed": true,
          "internalType": "bytes32",
          "name": "role",
          "type": "bytes32"
        },
        {
          "indexed": true,
          "internalType": "address",
          "name": "account",
          "type": "address"
        },
        {
          "indexed": true,
          "internalType": "address",
          "name": "sender",
          "type": "address"
        }
      ],
      "name": "RoleRevoked",
      "type": "event"
    },
    {
      "anonymous": false,
      "inputs": [
        {
          "indexed": true,
          "internalType": "address",
          "name": "validatorAddress",
          "type": "address"
        },
        {
          "indexed": false,
          "internalType": "uint256",
          "name": "amount",
          "type": "uint256"
        },
        {
          "indexed": false,
          "internalType": "uint256",
          "name": "totalAmount",
          "type": "uint256"
        }
      ],
      "name": "Staked",
      "type": "event"
    },
    {
      "anonymous": false,
      "inputs": [
        {
          "indexed": false,
          "internalType": "address",
          "name": "account",
          "type": "address"
        }
      ],
      "name": "Unpaused",
      "type": "event"
    },
    {
      "anonymous": false,
      "inputs": [
        {
          "indexed": true,
          "internalType": "address",
          "name": "stakerAddress",
          "type": "address"
        },
        {
          "indexed": false,
          "internalType": "uint256",
          "name": "amount",
          "type": "uint256"
        }
      ],
      "name": "Unstaked",
      "type": "event"
    },
    {
      "anonymous": false,
      "inputs": [
        {
          "indexed": true,
          "internalType": "address",
          "name": "implementation",
          "type": "address"
        }
      ],
      "name": "Upgraded",
      "type": "event"
    },
    {
      "anonymous": false,
      "inputs": [
        {
          "indexed": true,
          "internalType": "address",
          "name": "validatorAddress",
          "type": "address"
        }
      ],
      "name": "ValidatorApproved",
      "type": "event"
    },
    {
      "anonymous": false,
      "inputs": [
        {
          "indexed": true,
          "internalType": "address",
          "name": "validatorAddress",
          "type": "address"
        },
        {
          "indexed": true,
          "internalType": "address",
          "name": "ownerAddress",
          "type": "address"
        },
        {
          "indexed": false,
          "internalType": "uint256",
          "name": "amount",
          "type": "uint256"
        },
        {
          "indexed": false,
          "internalType": "uint256",
          "name": "totalAmount",
          "type": "uint256"
        }
      ],
      "name": "ValidatorRegisterd",
      "type": "event"
    },
    {
      "inputs": [],
      "name": "DEFAULT_ADMIN_ROLE",
      "outputs": [
        {
          "internalType": "bytes32",
          "name": "",
          "type": "bytes32"
        }
      ],
      "stateMutability": "view",
      "type": "function"
    },
    {
      "inputs": [],
      "name": "UPGRADE_INTERFACE_VERSION",
      "outputs": [
        {
          "internalType": "string",
          "name": "",
          "type": "string"
        }
      ],
      "stateMutability": "view",
      "type": "function"
    },
    {
      "inputs": [
        {
          "internalType": "address",
          "name": "validatorAddress",
          "type": "address"
        }
      ],
      "name": "acceptValidator",
      "outputs": [],
      "stateMutability": "nonpayable",
      "type": "function"
    },
    {
      "inputs": [
        {
          "internalType": "string",
          "name": "url",
          "type": "string"
        },
        {
          "internalType": "string",
          "name": "encryptedKey",
          "type": "string"
        }
      ],
      "name": "addFile",
      "outputs": [],
      "stateMutability": "nonpayable",
      "type": "function"
    },
    {
      "inputs": [
        {
          "internalType": "uint256",
          "name": "fileId",
          "type": "uint256"
        },
        {
          "internalType": "uint256",
          "name": "verificationId",
          "type": "uint256"
        }
      ],
      "name": "fileVerifications",
      "outputs": [
        {
          "internalType": "address",
          "name": "validatorAddress",
          "type": "address"
        },
        {
          "internalType": "uint256",
          "name": "timespatmp",
          "type": "uint256"
        },
        {
          "internalType": "uint256",
          "name": "score",
          "type": "uint256"
        },
        {
          "internalType": "string",
          "name": "metadata",
          "type": "string"
        }
      ],
      "stateMutability": "view",
      "type": "function"
    },
    {
      "inputs": [
        {
          "internalType": "uint256",
          "name": "fileId",
          "type": "uint256"
        }
      ],
      "name": "files",
      "outputs": [
        {
          "internalType": "address",
          "name": "ownerAddress",
          "type": "address"
        },
        {
          "internalType": "string",
          "name": "url",
          "type": "string"
        },
        {
          "internalType": "string",
          "name": "encryptedKey",
          "type": "string"
        },
        {
          "internalType": "uint256",
          "name": "addedTime",
          "type": "uint256"
        },
        {
          "internalType": "uint256",
          "name": "verificationsLength",
          "type": "uint256"
        }
      ],
      "stateMutability": "view",
      "type": "function"
    },
    {
      "inputs": [
        {
          "internalType": "uint256[][]",
          "name": "W",
          "type": "uint256[][]"
        },
        {
          "internalType": "uint256[]",
          "name": "S",
          "type": "uint256[]"
        }
      ],
      "name": "getEmissionScores",
      "outputs": [
        {
          "internalType": "uint256[]",
          "name": "",
          "type": "uint256[]"
        }
      ],
      "stateMutability": "view",
      "type": "function"
    },
    {
      "inputs": [
        {
          "internalType": "address",
          "name": "validatorAddress",
          "type": "address"
        }
      ],
      "name": "getNextFileToVerify",
      "outputs": [
        {
          "internalType": "uint256",
          "name": "fileId",
          "type": "uint256"
        },
        {
          "internalType": "string",
          "name": "url",
          "type": "string"
        },
        {
          "internalType": "string",
          "name": "encryptedKey",
          "type": "string"
        },
        {
          "internalType": "uint256",
          "name": "addedTime",
          "type": "uint256"
        }
      ],
      "stateMutability": "view",
      "type": "function"
    },
    {
      "inputs": [
        {
          "internalType": "bytes32",
          "name": "role",
          "type": "bytes32"
        }
      ],
      "name": "getRoleAdmin",
      "outputs": [
        {
          "internalType": "bytes32",
          "name": "",
          "type": "bytes32"
        }
      ],
      "stateMutability": "view",
      "type": "function"
    },
    {
      "inputs": [
        {
          "internalType": "bytes32",
          "name": "role",
          "type": "bytes32"
        },
        {
          "internalType": "address",
          "name": "account",
          "type": "address"
        }
      ],
      "name": "grantRole",
      "outputs": [],
      "stateMutability": "nonpayable",
      "type": "function"
    },
    {
      "inputs": [
        {
          "internalType": "bytes32",
          "name": "role",
          "type": "bytes32"
        },
        {
          "internalType": "address",
          "name": "account",
          "type": "address"
        }
      ],
      "name": "hasRole",
      "outputs": [
        {
          "internalType": "bool",
          "name": "",
          "type": "bool"
        }
      ],
      "stateMutability": "view",
      "type": "function"
    },
    {
      "inputs": [
        {
          "internalType": "address",
          "name": "ownerAddress",
          "type": "address"
        },
        {
          "internalType": "uint256",
          "name": "newMaxNumberOfValidators",
          "type": "uint256"
        },
        {
          "internalType": "uint256",
          "name": "newValidatorScoreMinTrust",
          "type": "uint256"
        },
        {
          "internalType": "uint256",
          "name": "newValidatorScoreKappa",
          "type": "uint256"
        },
        {
          "internalType": "uint256",
          "name": "newValidatorScoreRho",
          "type": "uint256"
        },
        {
          "internalType": "uint256",
          "name": "newValidationPeriod",
          "type": "uint256"
        }
      ],
      "name": "initialize",
      "outputs": [],
      "stateMutability": "nonpayable",
      "type": "function"
    },
    {
      "inputs": [],
      "name": "masterKey",
      "outputs": [
        {
          "internalType": "string",
          "name": "",
          "type": "string"
        }
      ],
      "stateMutability": "view",
      "type": "function"
    },
    {
      "inputs": [],
      "name": "maxNumberOfValidators",
      "outputs": [
        {
          "internalType": "uint256",
          "name": "",
          "type": "uint256"
        }
      ],
      "stateMutability": "view",
      "type": "function"
    },
    {
      "inputs": [],
      "name": "minStakeAmount",
      "outputs": [
        {
          "internalType": "uint256",
          "name": "",
          "type": "uint256"
        }
      ],
      "stateMutability": "view",
      "type": "function"
    },
    {
      "inputs": [],
      "name": "owner",
      "outputs": [
        {
          "internalType": "address",
          "name": "",
          "type": "address"
        }
      ],
      "stateMutability": "view",
      "type": "function"
    },
    {
      "inputs": [],
      "name": "pause",
      "outputs": [],
      "stateMutability": "nonpayable",
      "type": "function"
    },
    {
      "inputs": [],
      "name": "paused",
      "outputs": [
        {
          "internalType": "bool",
          "name": "",
          "type": "bool"
        }
      ],
      "stateMutability": "view",
      "type": "function"
    },
    {
      "inputs": [],
      "name": "proxiableUUID",
      "outputs": [
        {
          "internalType": "bytes32",
          "name": "",
          "type": "bytes32"
        }
      ],
      "stateMutability": "view",
      "type": "function"
    },
    {
      "inputs": [
        {
          "internalType": "uint256",
          "name": "xWAD",
          "type": "uint256"
        },
        {
          "internalType": "uint256",
          "name": "aWAD",
          "type": "uint256"
        },
        {
          "internalType": "uint256",
          "name": "pWAD",
          "type": "uint256"
        },
        {
          "internalType": "uint256",
          "name": "kWAD",
          "type": "uint256"
        },
        {
          "internalType": "uint256",
          "name": "cWAD",
          "type": "uint256"
        }
      ],
      "name": "rationalSigmoid",
      "outputs": [
        {
          "internalType": "uint256",
          "name": "",
          "type": "uint256"
        }
      ],
      "stateMutability": "view",
      "type": "function"
    },
    {
      "inputs": [
        {
          "internalType": "address",
          "name": "validatorAddress",
          "type": "address"
        },
        {
          "internalType": "address",
          "name": "validatorOwnerAddress",
          "type": "address"
        }
      ],
      "name": "registerAsValidator",
      "outputs": [],
      "stateMutability": "payable",
      "type": "function"
    },
    {
      "inputs": [],
      "name": "renounceOwnership",
      "outputs": [],
      "stateMutability": "nonpayable",
      "type": "function"
    },
    {
      "inputs": [
        {
          "internalType": "bytes32",
          "name": "role",
          "type": "bytes32"
        },
        {
          "internalType": "address",
          "name": "callerConfirmation",
          "type": "address"
        }
      ],
      "name": "renounceRole",
      "outputs": [],
      "stateMutability": "nonpayable",
      "type": "function"
    },
    {
      "inputs": [
        {
          "internalType": "bytes32",
          "name": "role",
          "type": "bytes32"
        },
        {
          "internalType": "address",
          "name": "account",
          "type": "address"
        }
      ],
      "name": "revokeRole",
      "outputs": [],
      "stateMutability": "nonpayable",
      "type": "function"
    },
    {
      "inputs": [
        {
          "internalType": "string",
          "name": "newMasterKey",
          "type": "string"
        }
      ],
      "name": "setMasterKey",
      "outputs": [
        {
          "internalType": "string",
          "name": "",
          "type": "string"
        }
      ],
      "stateMutability": "nonpayable",
      "type": "function"
    },
    {
      "inputs": [
        {
          "internalType": "bytes4",
          "name": "interfaceId",
          "type": "bytes4"
        }
      ],
      "name": "supportsInterface",
      "outputs": [
        {
          "internalType": "bool",
          "name": "",
          "type": "bool"
        }
      ],
      "stateMutability": "view",
      "type": "function"
    },
    {
      "inputs": [],
      "name": "totalStaked",
      "outputs": [
        {
          "internalType": "uint256",
          "name": "",
          "type": "uint256"
        }
      ],
      "stateMutability": "view",
      "type": "function"
    },
    {
      "inputs": [
        {
          "internalType": "address",
          "name": "newOwner",
          "type": "address"
        }
      ],
      "name": "transferOwnership",
      "outputs": [],
      "stateMutability": "nonpayable",
      "type": "function"
    },
    {
      "inputs": [],
      "name": "unpause",
      "outputs": [],
      "stateMutability": "nonpayable",
      "type": "function"
    },
    {
      "inputs": [
        {
          "internalType": "address",
          "name": "newImplementation",
          "type": "address"
        },
        {
          "internalType": "bytes",
          "name": "data",
          "type": "bytes"
        }
      ],
      "name": "upgradeToAndCall",
      "outputs": [],
      "stateMutability": "payable",
      "type": "function"
    },
    {
      "inputs": [],
      "name": "validationPeriod",
      "outputs": [
        {
          "internalType": "uint256",
          "name": "",
          "type": "uint256"
        }
      ],
      "stateMutability": "view",
      "type": "function"
    },
    {
      "inputs": [
        {
          "internalType": "address",
          "name": "validatorAddress",
          "type": "address"
        }
      ],
      "name": "validatorInfo",
      "outputs": [
        {
          "components": [
            {
              "internalType": "uint256",
              "name": "id",
              "type": "uint256"
            },
            {
              "internalType": "address",
              "name": "ownerAddress",
              "type": "address"
            },
            {
              "internalType": "uint256",
              "name": "stakeAmount",
              "type": "uint256"
            },
            {
              "internalType": "enum IDataLiquidityPool.ValidatorStatus",
              "name": "status",
              "type": "uint8"
            },
            {
              "internalType": "uint256",
              "name": "lastVerifiedFileId",
              "type": "uint256"
            }
          ],
          "internalType": "struct IDataLiquidityPool.ValidatorInfo",
          "name": "",
          "type": "tuple"
        }
      ],
      "stateMutability": "view",
      "type": "function"
    },
    {
      "inputs": [],
      "name": "validatorScoreKappa",
      "outputs": [
        {
          "internalType": "uint256",
          "name": "",
          "type": "uint256"
        }
      ],
      "stateMutability": "view",
      "type": "function"
    },
    {
      "inputs": [],
      "name": "validatorScoreMinTrust",
      "outputs": [
        {
          "internalType": "uint256",
          "name": "",
          "type": "uint256"
        }
      ],
      "stateMutability": "view",
      "type": "function"
    },
    {
      "inputs": [],
      "name": "validatorScoreRho",
      "outputs": [
        {
          "internalType": "uint256",
          "name": "",
          "type": "uint256"
        }
      ],
      "stateMutability": "view",
      "type": "function"
    },
    {
      "inputs": [],
      "name": "validators",
      "outputs": [
        {
          "internalType": "address[]",
          "name": "",
          "type": "address[]"
        }
      ],
      "stateMutability": "view",
      "type": "function"
    },
    {
      "inputs": [
        {
          "internalType": "uint256",
          "name": "fileId",
          "type": "uint256"
        },
        {
          "internalType": "uint256",
          "name": "score",
          "type": "uint256"
        },
        {
          "internalType": "string",
          "name": "metadata",
          "type": "string"
        }
      ],
      "name": "verifyFile",
      "outputs": [],
      "stateMutability": "nonpayable",
      "type": "function"
    }
  ],
  "bytecode": "0x60a06040523060805234801561001457600080fd5b5060805161321461003e600039600081816118230152818161184c0152611a3701526132146000f3fe60806040526004361061021a5760003560e01c8063817b1cd211610123578063ad3cb1cc116100ab578063e66187661161006f578063e661876614610625578063f188768414610652578063f2fde38b14610668578063f4c714b414610688578063f73dcbdf146106b957600080fd5b8063ad3cb1cc1461056c578063c5064f3d1461059d578063ca1e7819146105b3578063d365f5b0146105d5578063d547741f1461060557600080fd5b80638afe35b9116100f25780638afe35b9146104c55780638da5cb5b146104da57806391a045521461052157806391d1485414610537578063a217fddf1461055757600080fd5b8063817b1cd2146104645780638456cb591461047a5780638686ffa41461048f57806386c216bf146104af57600080fd5b80634f1811dd116101a6578063585a22e711610175578063585a22e7146103d45780635c975abb1461040157806366796446146104265780636f7cefc414610439578063715018a61461044f57600080fd5b80634f1811dd1461034f5780634f1ef2861461037c57806351e9a8871461038f57806352d1902d146103bf57600080fd5b80632f2ff15d116101ed5780632f2ff15d146102ba5780633607dc5a146102da57806336568abe146102fa5780633f4ba83a1461031a57806345ff4c801461032f57600080fd5b806301ffc9a71461021f5780631e0b35e914610254578063248a9ca314610278578063248bfc3b14610298575b600080fd5b34801561022b57600080fd5b5061023f61023a366004612859565b6106d9565b60405190151581526020015b60405180910390f35b34801561026057600080fd5b5061026a60075481565b60405190815260200161024b565b34801561028457600080fd5b5061026a610293366004612883565b610710565b3480156102a457600080fd5b506102b86102b3366004612959565b610732565b005b3480156102c657600080fd5b506102b86102d53660046129d8565b610842565b3480156102e657600080fd5b506102b86102f5366004612a04565b610864565b34801561030657600080fd5b506102b86103153660046129d8565b610947565b34801561032657600080fd5b506102b861097f565b34801561033b57600080fd5b506102b861034a366004612a1f565b610991565b34801561035b57600080fd5b5061036f61036a366004612a04565b610ad5565b60405161024b9190612a7f565b6102b861038a366004612adf565b610b88565b34801561039b57600080fd5b506103af6103aa366004612a04565b610ba7565b60405161024b9493929190612b86565b3480156103cb57600080fd5b5061026a610dcb565b3480156103e057600080fd5b506103f46103ef366004612bc3565b610de8565b60405161024b9190612bff565b34801561040d57600080fd5b506000805160206131bf8339815191525460ff1661023f565b6102b8610434366004612c12565b610ea7565b34801561044557600080fd5b5061026a60065481565b34801561045b57600080fd5b506102b8610f9f565b34801561047057600080fd5b5061026a60035481565b34801561048657600080fd5b506102b8610fb1565b34801561049b57600080fd5b5061026a6104aa366004612c3c565b610fc1565b3480156104bb57600080fd5b5061026a60055481565b3480156104d157600080fd5b506103f461108e565b3480156104e657600080fd5b507f9016d09d72d40fdae2fd8ceac6b6234c7706214fd39c1cd1e609a0528c199300546040516001600160a01b03909116815260200161024b565b34801561052d57600080fd5b5061026a60045481565b34801561054357600080fd5b5061023f6105523660046129d8565b61111c565b34801561056357600080fd5b5061026a600081565b34801561057857600080fd5b506103f4604051806040016040528060058152602001640352e302e360dc1b81525081565b3480156105a957600080fd5b5061026a60015481565b3480156105bf57600080fd5b506105c8611154565b60405161024b9190612c77565b3480156105e157600080fd5b506105f56105f0366004612cc4565b611165565b60405161024b9493929190612ce6565b34801561061157600080fd5b506102b86106203660046129d8565b611245565b34801561063157600080fd5b50610645610640366004612da5565b611261565b60405161024b9190612e6e565b34801561065e57600080fd5b5061026a60025481565b34801561067457600080fd5b506102b8610683366004612a04565b6112ae565b34801561069457600080fd5b506106a86106a3366004612883565b6112f1565b60405161024b959493929190612ea6565b3480156106c557600080fd5b506102b86106d4366004612ef1565b61145a565b60006001600160e01b03198216637965db0b60e01b148061070a57506301ffc9a760e01b6001600160e01b03198316145b92915050565b600090815260008051602061319f833981519152602052604090206001015490565b6000826040516020016107459190612f40565b60408051601f198184030181529190528051602090910120905061076a600e826115b3565b1561078857604051631441154d60e31b815260040160405180910390fd5b610793600e826115ce565b5060006107a0600e6115da565b6000818152600d6020526040902080546001600160a01b031916331781559091506001016107ce8582612fe6565b506000818152600d602052604090206002016107ea8482612fe6565b506000818152600d602052604090819020426003909101555133907f2b274a65505764a0b5cd751243bb52c611c94d959a38ef4ccc3452bd8758ec85906108349084815260200190565b60405180910390a250505050565b61084b82610710565b610854816115e4565b61085e83836115ee565b50505050565b61086c611693565b6001600160a01b03811660009081526008602052604090206001600382015460ff16600481111561089f5761089f612a69565b146108bd57604051638f75eeaf60e01b815260040160405180910390fd5b6001546108ca600b6115da565b106108e857604051630aee15d760e21b815260040160405180910390fd5b60038101805460ff19166002179055610902600b836116ee565b5061090d600b6115da565b81556040516001600160a01b038316907f6b872750794b9ce90f9678e8d33652e3c79a1bc2868bf145d74bb04e7da83af890600090a25050565b6001600160a01b03811633146109705760405163334bd91960e11b815260040160405180910390fd5b61097a8282611703565b505050565b610987611693565b61098f61177f565b565b7ff0c57e16840df040f15088dc2f81fe391c3923bec73e23a9662efc9c229c6a008054600160401b810460ff1615906001600160401b03166000811580156109d65750825b90506000826001600160401b031660011480156109f25750303b155b905081158015610a00575080155b15610a1e5760405163f92ee8a960e01b815260040160405180910390fd5b845467ffffffffffffffff191660011785558315610a4857845460ff60401b1916600160401b1785555b610a518b6117df565b610a596117f0565b610a616117f8565b610a69611808565b60018a905560058990556006889055600787905560048690558315610ac857845460ff60401b19168555604051600181527fc7f505b2f371ae2175ee4913f4499e1f2633a7b5936321eed1cdaeb6115181d29060200160405180910390a15b5050505050505050505050565b6040805160a0810182526000808252602082018190529181018290526060810182905260808101919091526001600160a01b03808316600090815260086020908152604091829020825160a081018452815481526001820154909416918401919091526002810154918301919091526003810154606083019060ff166004811115610b6257610b62612a69565b6004811115610b7357610b73612a69565b81526020016004820154815250509050919050565b610b90611818565b610b99826118bd565b610ba382826118c5565b5050565b6000606080600080610bb886611982565b9050600081118015610be757506004546000828152600d60205260409020600301544291610be5916130bb565b105b610c805760015b610bf8600b6115da565b811015610c7e576000610c14610c0f600b84611a20565b611982565b9050600081118015610c4357506004546000828152600d60205260409020600301544291610c41916130bb565b105b8015610c6c57506000838152600d60205260408082206003908101548484529190922090910154105b15610c75578092505b50600101610bee565b505b6000818152600d60205260409020600381015460018201805484939192600290920191908390610caf90612f5c565b80601f0160208091040260200160405190810160405280929190818152602001828054610cdb90612f5c565b8015610d285780601f10610cfd57610100808354040283529160200191610d28565b820191906000526020600020905b815481529060010190602001808311610d0b57829003601f168201915b50505050509250818054610d3b90612f5c565b80601f0160208091040260200160405190810160405280929190818152602001828054610d6790612f5c565b8015610db45780601f10610d8957610100808354040283529160200191610db4565b820191906000526020600020905b815481529060010190602001808311610d9757829003601f168201915b505050505091509450945094509450509193509193565b6000610dd5611a2c565b5060008051602061317f83398151915290565b606060023360009081526008602052604090206003015460ff166004811115610e1357610e13612a69565b14610e3157604051632ec5b44960e01b815260040160405180910390fd5b60008054610e3e90612f5c565b159050610e5e5760405163eb6f177f60e01b815260040160405180910390fd5b6000610e6a8382612fe6565b507f6add9898d2e3ac145eab271cee721d90be6753e16f43906b29e7320f1056aa1782604051610e9a9190612bff565b60405180910390a1919050565b610eaf611a75565b6001600160a01b03821660009081526008602052604081206003015460ff166004811115610edf57610edf612a69565b14610efd5760405163132e7efb60e31b815260040160405180910390fd5b6001600160a01b038281166000908152600860205260409020600180820180546001600160a01b03191693851693909317909255346002820155600301805460ff191682800217905550610f526009836116ee565b50604080513480825260208201526001600160a01b0380841692908516917f10a96bb5568fa4156b23301a67fb73d1b7d607e510f7cc037074b59bb8237c72910160405180910390a35050565b610fa7611693565b61098f6000611aa6565b610fb9611693565b61098f611b17565b600080610fce84886130ce565b90506000670de0b6b3a7640000610fe583806130e1565b610fef919061310e565b90506000670de0b6b3a764000061100684896130e1565b611010919061310e565b90506000611043670de0b6b3a764000061102a858b6130e1565b611034919061310e565b61103e90886130bb565b611b60565b611054670de0b6b3a7640000611b60565b61105e91906130e1565b9050888161106c84836130e1565b611076919061310e565b61108091906130bb565b9a9950505050505050505050565b6000805461109b90612f5c565b80601f01602080910402602001604051908101604052809291908181526020018280546110c790612f5c565b80156111145780601f106110e957610100808354040283529160200191611114565b820191906000526020600020905b8154815290600101906020018083116110f757829003601f168201915b505050505081565b600091825260008051602061319f833981519152602090815260408084206001600160a01b0393909316845291905290205460ff1690565b60606111606009611c48565b905090565b6000828152600d60209081526040808320848452600501909152812080546001820154600283015460039093018054859485946060946001600160a01b0390911693909281906111b490612f5c565b80601f01602080910402602001604051908101604052809291908181526020018280546111e090612f5c565b801561122d5780601f106112025761010080835404028352916020019161122d565b820191906000526020600020905b81548152906001019060200180831161121057829003601f168201915b50505050509050935093509350935092959194509250565b61124e82610710565b611257816115e4565b61085e8383611703565b6060600061126e83611c55565b9050600061127c8583611da8565b9050600061128a8684611f1c565b905060006112978361215d565b90506112a3818361223f565b979650505050505050565b6112b6611693565b6001600160a01b0381166112e557604051631e4fbdf760e01b8152600060048201526024015b60405180910390fd5b6112ee81611aa6565b50565b6000818152600d602052604081208054600382015460048301546001840180546060958695889586956001600160a01b039092169493600290930192909190849061133b90612f5c565b80601f016020809104026020016040519081016040528092919081815260200182805461136790612f5c565b80156113b45780601f10611389576101008083540402835291602001916113b4565b820191906000526020600020905b81548152906001019060200180831161139757829003601f168201915b505050505093508280546113c790612f5c565b80601f01602080910402602001604051908101604052809291908181526020018280546113f390612f5c565b80156114405780601f1061141557610100808354040283529160200191611440565b820191906000526020600020905b81548152906001019060200180831161142357829003601f168201915b505050505092509450945094509450945091939590929450565b60023360009081526008602052604090206003015460ff16600481111561148357611483612a69565b146114a157604051632ec5b44960e01b815260040160405180910390fd5b6000838152600d6020526040902060040154156114d157604051633012061f60e21b815260040160405180910390fd5b826114db33611982565b146114f9576040516315addff760e21b815260040160405180910390fd5b6000838152600d602090815260408083206004810180548086526005830190945291842090939092919061152c83613122565b909155505080546001600160a01b03191633178155426001820155600281018490556003810161155c8482612fe6565b503360008181526008602090815260409182902060040188905581518881529081018790527f50f16c05266b477dec86455837e3aa673bcc4d8d528314a55493b4af53c80236910160405180910390a25050505050565b600081815260018301602052604081205415155b9392505050565b60006115c783836123fc565b600061070a825490565b6112ee813361244b565b600060008051602061319f833981519152611609848461111c565b611689576000848152602082815260408083206001600160a01b03871684529091529020805460ff1916600117905561163f3390565b6001600160a01b0316836001600160a01b0316857f2f8788117e7eff1d82e926ec794901d17c78024a50270940304540a733656f0d60405160405180910390a4600191505061070a565b600091505061070a565b336116c57f9016d09d72d40fdae2fd8ceac6b6234c7706214fd39c1cd1e609a0528c199300546001600160a01b031690565b6001600160a01b03161461098f5760405163118cdaa760e01b81523360048201526024016112dc565b60006115c7836001600160a01b0384166123fc565b600060008051602061319f83398151915261171e848461111c565b15611689576000848152602082815260408083206001600160a01b0387168085529252808320805460ff1916905551339287917ff6391f5c32d9c69d2a47ea670b442974b53935d1edc7fd64eb21e047a839171b9190a4600191505061070a565b611787612484565b6000805160206131bf833981519152805460ff191681557f5db9ee0a495bf2e6ff9c91a7834c1ba4fdd244a5e8aa4e537bd38aeae4b073aa335b6040516001600160a01b03909116815260200160405180910390a150565b6117e76124b4565b6112ee816124fd565b61098f6124b4565b6118006124b4565b61098f612505565b6118106124b4565b61098f612533565b306001600160a01b037f000000000000000000000000000000000000000000000000000000000000000016148061189f57507f00000000000000000000000000000000000000000000000000000000000000006001600160a01b031661189360008051602061317f833981519152546001600160a01b031690565b6001600160a01b031614155b1561098f5760405163703e46dd60e11b815260040160405180910390fd5b6112ee611693565b816001600160a01b03166352d1902d6040518163ffffffff1660e01b8152600401602060405180830381865afa92505050801561191f575060408051601f3d908101601f1916820190925261191c9181019061313b565b60015b61194757604051634c9c8ce360e01b81526001600160a01b03831660048201526024016112dc565b60008051602061317f833981519152811461197857604051632a87526960e21b8152600481018290526024016112dc565b61097a8383612554565b6001600160a01b038116600090815260086020526040812060048101549054826119ac600b6115da565b90506000816119bb8186613154565b6119c585856130bb565b6119cf91906130ce565b6119d99190613154565b9050600081156119f2576119ed82866130bb565b6119fc565b6119fc83866130bb565b9050611a08600e6115da565b811115611a165760006112a3565b9695505050505050565b60006115c783836125aa565b306001600160a01b037f0000000000000000000000000000000000000000000000000000000000000000161461098f5760405163703e46dd60e11b815260040160405180910390fd5b6000805160206131bf8339815191525460ff161561098f5760405163d93c066560e01b815260040160405180910390fd5b7f9016d09d72d40fdae2fd8ceac6b6234c7706214fd39c1cd1e609a0528c19930080546001600160a01b031981166001600160a01b03848116918217845560405192169182907f8be0079c531659141344cd1fd0a4f28419497f9722a3daafe3b4186f6b6457e090600090a3505050565b611b1f611a75565b6000805160206131bf833981519152805460ff191660011781557f62e78cea01bee320cd4e420270b5ea74000d11b0c9f74754ebdbfc544b05a258336117c1565b600081600003611b7257506000919050565b60006001611b7f846125d4565b901c6001901b90506001818481611b9857611b986130f8565b048201901c90506001818481611bb057611bb06130f8565b048201901c90506001818481611bc857611bc86130f8565b048201901c90506001818481611be057611be06130f8565b048201901c90506001818481611bf857611bf86130f8565b048201901c90506001818481611c1057611c106130f8565b048201901c90506001818481611c2857611c286130f8565b048201901c90506115c781828581611c4257611c426130f8565b04612668565b606060006115c78361267e565b606060008083516001600160401b03811115611c7357611c7361289c565b604051908082528060200260200182016040528015611c9c578160200160208202803683370190505b50905060005b8451811015611cda57848181518110611cbd57611cbd613168565b602002602001015183611cd091906130bb565b9250600101611ca2565b5060008211611d375760405162461bcd60e51b815260206004820152602360248201527f4469766973696f6e206279207a65726f20696e206e6f726d616c697a655374616044820152626b657360e81b60648201526084016112dc565b60005b8451811015611da05782670de0b6b3a7640000868381518110611d5f57611d5f613168565b6020026020010151611d7191906130e1565b611d7b919061310e565b828281518110611d8d57611d8d613168565b6020908102919091010152600101611d3a565b509392505050565b6060600083516001600160401b03811115611dc557611dc561289c565b604051908082528060200260200182016040528015611dee578160200160208202803683370190505b50905060005b8451811015611da05760005b858281518110611e1257611e12613168565b602002602001015151811015611f1357600554868381518110611e3757611e37613168565b60200260200101518281518110611e5057611e50613168565b60200260200101511115611f0b57670de0b6b3a7640000858381518110611e7957611e79613168565b6020026020010151878481518110611e9357611e93613168565b60200260200101518381518110611eac57611eac613168565b6020026020010151611ebe91906130e1565b611ec8919061310e565b838281518110611eda57611eda613168565b6020026020010151611eec91906130bb565b838281518110611efe57611efe613168565b6020026020010181815250505b600101611e00565b50600101611df4565b6060600083516001600160401b03811115611f3957611f3961289c565b604051908082528060200260200182016040528015611f62578160200160208202803683370190505b5090506000805b85518110156120535760005b868281518110611f8757611f87613168565b60200260200101515181101561204a57670de0b6b3a7640000868381518110611fb257611fb2613168565b6020026020010151888481518110611fcc57611fcc613168565b60200260200101518381518110611fe557611fe5613168565b6020026020010151611ff791906130e1565b612001919061310e565b84828151811061201357612013613168565b602002602001015161202591906130bb565b84828151811061203757612037613168565b6020908102919091010152600101611f75565b50600101611f69565b5060005b825181101561208f5782818151811061207257612072613168565b60200260200101518261208591906130bb565b9150600101612057565b50600081116120ea5760405162461bcd60e51b815260206004820152602160248201527f4469766973696f6e206279207a65726f20696e2063616c63756c61746552616e6044820152606b60f81b60648201526084016112dc565b60005b82518110156121535781670de0b6b3a764000084838151811061211257612112613168565b602002602001015161212491906130e1565b61212e919061310e565b83828151811061214057612140613168565b60209081029190910101526001016120ed565b5090949350505050565b6060600082516001600160401b0381111561217a5761217a61289c565b6040519080825280602002602001820160405280156121a3578160200160208202803683370190505b50905060006121bb6002670de0b6b3a764000061310e565b6007546006549192509060006121da6028670de0b6b3a764000061310e565b905060005b87518110156122335761220e8882815181106121fd576121fd613168565b602002602001015186868686610fc1565b86828151811061222057612220613168565b60209081029190910101526001016121df565b50939695505050505050565b6060600083516001600160401b0381111561225c5761225c61289c565b604051908082528060200260200182016040528015612285578160200160208202803683370190505b5090506000805b855181101561233357670de0b6b3a76400008582815181106122b0576122b0613168565b60200260200101518783815181106122ca576122ca613168565b60200260200101516122dc91906130e1565b6122e6919061310e565b8382815181106122f8576122f8613168565b60200260200101818152505082818151811061231657612316613168565b60200260200101518261232991906130bb565b915060010161228c565b50600081116123935760405162461bcd60e51b815260206004820152602660248201527f4469766973696f6e206279207a65726f20696e2063616c63756c617465456d696044820152657373696f6e7360d01b60648201526084016112dc565b60005b82518110156121535781670de0b6b3a76400008483815181106123bb576123bb613168565b60200260200101516123cd91906130e1565b6123d7919061310e565b8382815181106123e9576123e9613168565b6020908102919091010152600101612396565b60008181526001830160205260408120546124435750815460018181018455600084815260208082209093018490558454848252828601909352604090209190915561070a565b50600061070a565b612455828261111c565b610ba35760405163e2517d3f60e01b81526001600160a01b0382166004820152602481018390526044016112dc565b6000805160206131bf8339815191525460ff1661098f57604051638dfc202b60e01b815260040160405180910390fd5b7ff0c57e16840df040f15088dc2f81fe391c3923bec73e23a9662efc9c229c6a0054600160401b900460ff1661098f57604051631afcd79f60e31b815260040160405180910390fd5b6112b66124b4565b61250d6124b4565b60017f9b779b17422d0df92223018b32b4d1fa46e071723d6817e2486d003becc55f0055565b61253b6124b4565b6000805160206131bf833981519152805460ff19169055565b61255d826126da565b6040516001600160a01b038316907fbc7cd75a20ee27fd9adebab32041f755214dbc6bffa90cc0225b39da2e5c2d3b90600090a28051156125a25761097a828261273f565b610ba36127b5565b60008260000182815481106125c1576125c1613168565b9060005260206000200154905092915050565b600080608083901c156125e957608092831c92015b604083901c156125fb57604092831c92015b602083901c1561260d57602092831c92015b601083901c1561261f57601092831c92015b600883901c1561263157600892831c92015b600483901c1561264357600492831c92015b600283901c1561265557600292831c92015b600183901c1561070a5760010192915050565b600081831061267757816115c7565b5090919050565b6060816000018054806020026020016040519081016040528092919081815260200182805480156126ce57602002820191906000526020600020905b8154815260200190600101908083116126ba575b50505050509050919050565b806001600160a01b03163b60000361271057604051634c9c8ce360e01b81526001600160a01b03821660048201526024016112dc565b60008051602061317f83398151915280546001600160a01b0319166001600160a01b0392909216919091179055565b6060600080846001600160a01b03168460405161275c9190612f40565b600060405180830381855af49150503d8060008114612797576040519150601f19603f3d011682016040523d82523d6000602084013e61279c565b606091505b50915091506127ac8583836127d4565b95945050505050565b341561098f5760405163b398979f60e01b815260040160405180910390fd5b6060826127e9576127e482612830565b6115c7565b815115801561280057506001600160a01b0384163b155b1561282957604051639996b31560e01b81526001600160a01b03851660048201526024016112dc565b5092915050565b8051156128405780518082602001fd5b604051630a12f52160e11b815260040160405180910390fd5b60006020828403121561286b57600080fd5b81356001600160e01b0319811681146115c757600080fd5b60006020828403121561289557600080fd5b5035919050565b634e487b7160e01b600052604160045260246000fd5b604051601f8201601f191681016001600160401b03811182821017156128da576128da61289c565b604052919050565b60006001600160401b038311156128fb576128fb61289c565b61290e601f8401601f19166020016128b2565b905082815283838301111561292257600080fd5b828260208301376000602084830101529392505050565b600082601f83011261294a57600080fd5b6115c7838335602085016128e2565b6000806040838503121561296c57600080fd5b82356001600160401b038082111561298357600080fd5b61298f86838701612939565b935060208501359150808211156129a557600080fd5b506129b285828601612939565b9150509250929050565b80356001600160a01b03811681146129d357600080fd5b919050565b600080604083850312156129eb57600080fd5b823591506129fb602084016129bc565b90509250929050565b600060208284031215612a1657600080fd5b6115c7826129bc565b60008060008060008060c08789031215612a3857600080fd5b612a41876129bc565b9860208801359850604088013597606081013597506080810135965060a00135945092505050565b634e487b7160e01b600052602160045260246000fd5b815181526020808301516001600160a01b03169082015260408083015190820152606082015160a082019060058110612ac857634e487b7160e01b600052602160045260246000fd5b806060840152506080830151608083015292915050565b60008060408385031215612af257600080fd5b612afb836129bc565b915060208301356001600160401b03811115612b1657600080fd5b8301601f81018513612b2757600080fd5b6129b2858235602084016128e2565b60005b83811015612b51578181015183820152602001612b39565b50506000910152565b60008151808452612b72816020860160208601612b36565b601f01601f19169290920160200192915050565b848152608060208201526000612b9f6080830186612b5a565b8281036040840152612bb18186612b5a565b91505082606083015295945050505050565b600060208284031215612bd557600080fd5b81356001600160401b03811115612beb57600080fd5b612bf784828501612939565b949350505050565b6020815260006115c76020830184612b5a565b60008060408385031215612c2557600080fd5b612c2e836129bc565b91506129fb602084016129bc565b600080600080600060a08688031215612c5457600080fd5b505083359560208501359550604085013594606081013594506080013592509050565b6020808252825182820181905260009190848201906040850190845b81811015612cb85783516001600160a01b031683529284019291840191600101612c93565b50909695505050505050565b60008060408385031215612cd757600080fd5b50508035926020909101359150565b60018060a01b0385168152836020820152826040820152608060608201526000611a166080830184612b5a565b60006001600160401b03821115612d2c57612d2c61289c565b5060051b60200190565b600082601f830112612d4757600080fd5b81356020612d5c612d5783612d13565b6128b2565b8083825260208201915060208460051b870101935086841115612d7e57600080fd5b602086015b84811015612d9a5780358352918301918301612d83565b509695505050505050565b60008060408385031215612db857600080fd5b82356001600160401b0380821115612dcf57600080fd5b818501915085601f830112612de357600080fd5b81356020612df3612d5783612d13565b82815260059290921b84018101918181019089841115612e1257600080fd5b8286015b84811015612e4a57803586811115612e2e5760008081fd5b612e3c8c86838b0101612d36565b845250918301918301612e16565b5096505086013592505080821115612e6157600080fd5b506129b285828601612d36565b6020808252825182820181905260009190848201906040850190845b81811015612cb857835183529284019291840191600101612e8a565b6001600160a01b038616815260a060208201819052600090612eca90830187612b5a565b8281036040840152612edc8187612b5a565b60608401959095525050608001529392505050565b600080600060608486031215612f0657600080fd5b833592506020840135915060408401356001600160401b03811115612f2a57600080fd5b612f3686828701612939565b9150509250925092565b60008251612f52818460208701612b36565b9190910192915050565b600181811c90821680612f7057607f821691505b602082108103612f9057634e487b7160e01b600052602260045260246000fd5b50919050565b601f82111561097a576000816000526020600020601f850160051c81016020861015612fbf5750805b601f850160051c820191505b81811015612fde57828155600101612fcb565b505050505050565b81516001600160401b03811115612fff57612fff61289c565b6130138161300d8454612f5c565b84612f96565b602080601f83116001811461304857600084156130305750858301515b600019600386901b1c1916600185901b178555612fde565b600085815260208120601f198616915b8281101561307757888601518255948401946001909101908401613058565b50858210156130955787850151600019600388901b60f8161c191681555b5050505050600190811b01905550565b634e487b7160e01b600052601160045260246000fd5b8082018082111561070a5761070a6130a5565b8181038181111561070a5761070a6130a5565b808202811582820484141761070a5761070a6130a5565b634e487b7160e01b600052601260045260246000fd5b60008261311d5761311d6130f8565b500490565b600060018201613134576131346130a5565b5060010190565b60006020828403121561314d57600080fd5b5051919050565b600082613163576131636130f8565b500690565b634e487b7160e01b600052603260045260246000fdfe360894a13ba1a3210667c828492db98dca3e2076cc3735a920a3ca505d382bbc02dd7bc7dec4dceedda775e58dd541e08a116c6c53815c0bd028192f7b626800cd5ed15c6e187e77e9aee88184c21f4f2182ab5827cb3b7e07fbedcd63f03300a2646970667358221220e335051e8a2371c4e5ec7e40e7eef3bf4d0798130e04624b46f9a96597ae808264736f6c63430008180033",
  "linkReferences": {},
  "deployedLinkReferences": {}
}